{
  "contractName": "Election",
  "abi": [
    {
      "inputs": [],
      "stateMutability": "nonpayable",
      "type": "constructor"
    },
    {
      "anonymous": false,
      "inputs": [
        {
          "indexed": true,
          "internalType": "uint256",
          "name": "_candidateId",
          "type": "uint256"
        }
      ],
      "name": "votedEvent",
      "type": "event"
    },
    {
      "inputs": [],
      "name": "CountOfCandidates",
      "outputs": [
        {
          "internalType": "uint256",
          "name": "",
          "type": "uint256"
        }
      ],
      "stateMutability": "view",
      "type": "function",
      "constant": true
    },
    {
      "inputs": [
        {
          "internalType": "uint256",
          "name": "",
          "type": "uint256"
        }
      ],
      "name": "candidates",
      "outputs": [
        {
          "internalType": "uint256",
          "name": "id",
          "type": "uint256"
        },
        {
          "internalType": "string",
          "name": "name",
          "type": "string"
        },
        {
          "internalType": "uint256",
          "name": "CountOfVotes",
          "type": "uint256"
        }
      ],
      "stateMutability": "view",
      "type": "function",
      "constant": true
    },
    {
      "inputs": [
        {
          "internalType": "address",
          "name": "",
          "type": "address"
        }
      ],
      "name": "voters",
      "outputs": [
        {
          "internalType": "bool",
          "name": "",
          "type": "bool"
        }
      ],
      "stateMutability": "view",
      "type": "function",
      "constant": true
    },
    {
      "inputs": [
        {
          "internalType": "uint256",
          "name": "_candidateId",
          "type": "uint256"
        }
      ],
      "name": "vote",
      "outputs": [],
      "stateMutability": "nonpayable",
      "type": "function"
    }
  ],
  "bytecode": "0x608060405234801561001057600080fd5b506100556040518060400160405280600b81526020017f43616e646964617465203100000000000000000000000000000000000000000081525061016a60201b60201c565b6100996040518060400160405280600b81526020017f43616e646964617465203200000000000000000000000000000000000000000081525061016a60201b60201c565b6100dd6040518060400160405280600b81526020017f43616e646964617465203300000000000000000000000000000000000000000081525061016a60201b60201c565b6101216040518060400160405280600b81526020017f43616e646964617465203400000000000000000000000000000000000000000081525061016a60201b60201c565b6101656040518060400160405280600b81526020017f43616e646964617465203500000000000000000000000000000000000000000081525061016a60201b60201c565b610372565b6002600081548092919061017d906102cb565b91905055506040518060600160405280600254815260200182815260200160008152506001600060025481526020019081526020016000206000820151816000015560208201518160010190805190602001906101db9291906101ec565b506040820151816002015590505050565b8280546101f890610299565b90600052602060002090601f01602090048101928261021a5760008555610261565b82601f1061023357805160ff1916838001178555610261565b82800160010185558215610261579182015b82811115610260578251825591602001919060010190610245565b5b50905061026e9190610272565b5090565b5b8082111561028b576000816000905550600101610273565b5090565b6000819050919050565b600060028204905060018216806102b157607f821691505b602082108114156102c5576102c4610343565b5b50919050565b60006102d68261028f565b91507fffffffffffffffffffffffffffffffffffffffffffffffffffffffffffffffff82141561030957610308610314565b5b600182019050919050565b7f4e487b7100000000000000000000000000000000000000000000000000000000600052601160045260246000fd5b7f4e487b7100000000000000000000000000000000000000000000000000000000600052602260045260246000fd5b610615806103816000396000f3fe608060405234801561001057600080fd5b506004361061004c5760003560e01c80630121b93f146100515780633477ee2e1461006d578063608eda781461009f578063a3ec138d146100bd575b600080fd5b61006b6004803603810190610066919061033c565b6100ed565b005b6100876004803603810190610082919061033c565b610211565b604051610096939291906103f2565b60405180910390f35b6100a76102c3565b6040516100b491906103d7565b60405180910390f35b6100d760048036038101906100d29190610313565b6102c9565b6040516100e491906103bc565b60405180910390f35b6000803373ffffffffffffffffffffffffffffffffffffffff1673ffffffffffffffffffffffffffffffffffffffff16815260200190815260200160002060009054906101000a900460ff161561014357600080fd5b60008111801561015557506002548111155b61015e57600080fd5b60016000803373ffffffffffffffffffffffffffffffffffffffff1673ffffffffffffffffffffffffffffffffffffffff16815260200190815260200160002060006101000a81548160ff0219169083151502179055506001600082815260200190815260200160002060020160008154809291906101dc906104f9565b9190505550807ffff3c900d938d21d0990d786e819f29b8d05c1ef587b462b939609625b684b1660405160405180910390a250565b600160205280600052604060002060009150905080600001549080600101805461023a906104c7565b80601f0160208091040260200160405190810160405280929190818152602001828054610266906104c7565b80156102b35780601f10610288576101008083540402835291602001916102b3565b820191906000526020600020905b81548152906001019060200180831161029657829003601f168201915b5050505050908060020154905083565b60025481565b60006020528060005260406000206000915054906101000a900460ff1681565b6000813590506102f8816105b1565b92915050565b60008135905061030d816105c8565b92915050565b60006020828403121561032557600080fd5b6000610333848285016102e9565b91505092915050565b60006020828403121561034e57600080fd5b600061035c848285016102fe565b91505092915050565b61036e8161045e565b82525050565b600061037f82610430565b610389818561043b565b9350610399818560208601610494565b6103a2816105a0565b840191505092915050565b6103b68161048a565b82525050565b60006020820190506103d16000830184610365565b92915050565b60006020820190506103ec60008301846103ad565b92915050565b600060608201905061040760008301866103ad565b81810360208301526104198185610374565b905061042860408301846103ad565b949350505050565b600081519050919050565b600082825260208201905092915050565b60006104578261046a565b9050919050565b60008115159050919050565b600073ffffffffffffffffffffffffffffffffffffffff82169050919050565b6000819050919050565b60005b838110156104b2578082015181840152602081019050610497565b838111156104c1576000848401525b50505050565b600060028204905060018216806104df57607f821691505b602082108114156104f3576104f2610571565b5b50919050565b60006105048261048a565b91507fffffffffffffffffffffffffffffffffffffffffffffffffffffffffffffffff82141561053757610536610542565b5b600182019050919050565b7f4e487b7100000000000000000000000000000000000000000000000000000000600052601160045260246000fd5b7f4e487b7100000000000000000000000000000000000000000000000000000000600052602260045260246000fd5b6000601f19601f8301169050919050565b6105ba8161044c565b81146105c557600080fd5b50565b6105d18161048a565b81146105dc57600080fd5b5056fea2646970667358221220becfdc203968f80b6887ebefab4b10259d31854ff02f14878f656e06d9f8642e64736f6c63430008000033",
  "immutableReferences": {},
  "source": "//\"SPDX-License-Identifier: UNLICENSED\"\r\npragma solidity ^0.8.0;\r\n\r\ncontract Election {\r\n\r\n    // Create the candidates structure\r\n\r\n    struct Candidate {\r\n        uint id;\r\n        string name;\r\n        uint CountOfVotes;\r\n    }\r\n\r\n    // Through the use of mapping we load and fetch the number of our voters\r\n    mapping(address => bool) public voters;\r\n\r\n    // As mentioned above, the same process is being done\r\n    // for our future politcians\r\n    mapping(uint => Candidate) public candidates;\r\n\r\n    // Store Candidates Count\r\n    uint public CountOfCandidates;\r\n\r\n    // voted event\r\n    event votedEvent (\r\n        uint indexed _candidateId\r\n    );\r\n\r\n    constructor() public {\r\n        NewCandidate(\"Candidate 1\");\r\n        NewCandidate(\"Candidate 2\");\r\n        NewCandidate(\"Candidate 3\");\r\n        NewCandidate(\"Candidate 4\");\r\n        NewCandidate(\"Candidate 5\");\r\n    }\r\n\r\n    function NewCandidate (string memory _name) private {\r\n        CountOfCandidates ++;\r\n        candidates[CountOfCandidates] = Candidate(CountOfCandidates, _name, 0);\r\n    }\r\n\r\n    function vote (uint _candidateId) public {\r\n        // require that they haven't voted before\r\n        require(!voters[msg.sender]);\r\n\r\n        // require a valid candidate\r\n        require(_candidateId > 0 && _candidateId <= CountOfCandidates);\r\n\r\n        // check if a voter has already voted\r\n        voters[msg.sender] = true;\r\n\r\n        // Update the total number of votes\r\n        candidates[_candidateId].CountOfVotes ++;\r\n\r\n        // trigger voted event\r\n        emit votedEvent(_candidateId);\r\n    }\r\n}\r\n",
  "sourcePath": "C:/Users/ /election/contracts/Election.sol",
  "compiler": {
    "name": "solc",
    "version": "0.8.0+commit.c7dfd78e.Emscripten.clang"
  },
  "schemaVersion": "3.3.3",
  "updatedAt": "2021-01-05T08:51:44.170Z",
  "networkType": "ethereum",
  "devdoc": {
    "kind": "dev",
    "methods": {},
    "version": 1
  },
  "userdoc": {
    "kind": "user",
    "methods": {},
    "version": 1
  }
}